:050A880001020408104A
:090A760005160000000000C1019A
:10093B00120A38E4F593F5941209E11209CCE5A0FB
:10094B00F4541FF50D1208CC12090B12088C120966
:09095B00F6120A6C120A2980E56B
:10090B007811E6FE18E6FDEDFF780EEEF6FE08EF29
:10091B00F6C394CEEE6480947F5003430D10D378CE
:10092B000FE6943218E6648094804003430D08224E
:10088C00E4FFEF900A8893550DF50C24FE601624B6
:10089C00FE601824FC601A24F8601C240F701C786D
:1008AC0016761D8016781776E180107818760480FD
:0F08BC000A7819764F8004781A76500FBF05C35B
:0108CB00220A
:1008CC00120A1A7FA612098D7F3212098D120A1A8A
:1008DC007FA712098DE4F50812096474102508F835
:1008EC00A607E508B40504D2028002C202120A4728
:0F08FC000508E508C3940640DF120A55020A6199
:1009CC007D087F2C1209B37D087F2D1209B37D0B96
:0509DC007F310209B3A8
:1009B3008F088D09120A1A7FA612098DAF08120932
:0909C3008DAF0912098D020A55DD
:0F0A1A00D287D286120A80C287120A80C2862231
:0C0A5500C287D286120A80D287020A8073
:0E0A4700A2029287D286120A80C286020A801C
:100A0900D286120A80A2879200C286120A80A200A8
:010A190022BA
:02098D008F0ACF
:10098F00E4F50BE50A339287D286120A80C28612EB
:10099F000A80E50A25E0F50A050BE50BC39408402C
:0409AF00E2020A094D
:10096400E4F50AD287F509E50A25E0F50AD28612EC
:100974000A80A287E433420AC286120A800509E586
:0809840009C3940840E1AF0A29
:01098C002248
:1009F600E4FF74162FF8E6F5993099FDC2990FBFFA
:020A060005F0F9
:010A080022CB
:090A6C007F057816E4F608DFFCB2
:010A7500225E
:1009E100D2AF53877F759850438E04759CDC438E3C
:0509F10001438E1022FD
:070A80000000007F0ADFFE09
:010A8700224C
:0A0A610000007F367EC6DEFEDFFCDB
:010A6B002268
:0E0A290000007F037E1A7DDFDDFEDEFCDFFABB
:010A3700229C
:0E0A380000007F077E4E7DA7DDFEDEFCDFFAAC
:010A4600228D
:03000000020800F3
:0C080000787FE4F6D8FD758120020847DF
:10080C0002093BE493A3F8E493A34003F68001F2BE
:10081C0008DFF48029E493A3F85407240CC8C333ED
:10082C00C4540F4420C8834004F456800146F6DFBC
:10083C00E4800B0102040810204080900A76E47ECC
:10084C00019360BCA3FF543F30E509541FFEE493B1
:10085C00A360010ECF54C025E060A840B8E493A378
:10086C00FAE493A3F8E493A3C8C582C8CAC583CAA3
:10087C00F0A3C8C582C8CAC583CADFE9DEE780BE5B
:010A7F000076
:00000001FF
