:100A0D0012011001000000083C4103200002010208
:100A1D00000109022200010104A0230904000001C4
:100A2D000301010509211001000122410007058183
:100A3D000308001805010906A101050719E029E7BA
:100A4D001500250175019508810295017508810133
:100A5D009503750105081901290391029501750585
:100A6D00910195067508150026FF00050719002A46
:050A7D00FF008100C034
:100B59000116FF08220000000000000000062A001C
:080B6900000000000001130070
:010BD1002201
:040BCC007F02DFFEC7
:010BD0002202
:100B8A00E4FEEEC39F500B7DFAAC051DEC70FA0E25
:020B9A0080F0E9
:010B9C002236
:080BBC009081FFEFF0020BCC69
:080BC4009080FFEFF0020BD15D
:050BAE007F28120BBCC2
:090BB300120BD19080FFE0FF223B
:100B9D007F15120BBC7F01120BC4120BB3BF51FAA0
:010BAD002225
:100ACA00E5106030D394085007AE10E4F5108008A2
:100ADA007E0874F82510F5107F29120BBCAF061298
:100AEA000BC4E4FDED6E601674082DF8E6FF120BD8
:0E0AFA00C40D80F07F29120BBCE4FF120BC468
:010B080022CA
:100B3B00E4FF851582851483E493FE74082FF8A6D1
:0D0B4B00060515E515700205140FBF08E53D
:010B5800227A
:100800007F22120BBC120BB38F17E517700302097E
:100810006A24F8700302094C24FC6023240B600353
:1008200002096C120BAEA907E97003020980E4FC0F
:10083000EC697003020980120BB3AB070C80F11254
:100840000BAEA907E4FCEC69600C120BB374082C26
:10085000F8A6070C80F0E96408600302093A850EE7
:1008600010AF08AB07AF08AB07EF30E50FE5096441
:100870000A6009E509B4090478217601AF08AB07DD
:10088000EF5460600302093C850911E509605A24B0
:10089000FB605D14605F24FE700302091F14700387
:1008A0000209271470030209312409600302093682
:1008B000E508541FFB6402702CE50C14601B1460E7
:1008C0000B2481600B1470747F1D80067F1C800BCD
:1008D0007F1B120BBC7F8E80077F1A120BBC7F80A0
:1008E000120BC48057D2018053E4F508F509804CFF
:1008F000850A128047E50BB4010875140A75150DB9
:100900008018E50BB4020875140A75151F800BE5F5
:100910000BB4220675140A751541120B3B801DE4B9
:10092000F508300017800AC200E50A600FD2008087
:100930000B7508018006D2018002D201200103025A
:100940000ACA7F19120BBC7F0F020BC4E511B40653
:1009500008120B3B120ACA8022E511B4050A7F1364
:10096000120BBCAF12120BC48011800FE517540399
:10097000FFBF0307C201C200E4F5107F23120BBCC6
:010980002254
:100B7200D2AFD2AC75985053890F438920758BFD43
:080B8200758DFDC2ABD28E227D
:100A82007F2C120B8A120B9D120B7220B2FD1208E0
:100A9200007821E6B401F4C2ACE4FE742A2EF8E632
:100AA200FF74242EF8A6070EBE08F07F2A120BBC94
:100AB2007F08120BC4E4FE74222EF8E6FF120BC468
:080AC2000EBE08F3D2AC80C3A4
:03002300020B09C4
:0B0B0900C0E0C0D075D000C000C007E5
:100B1400C2AC309815AF99742A2513F8A6070513AB
:0E0B2400E513D394044003751300C298D2ACBD
:090B3200D007D000D0D0D0E03291
:0300000002098171
:0C098100787FE4F6D8FD75812F0209C8CC
:10098D00020A82E493A3F8E493A34003F68001F2F4
:10099D0008DFF48029E493A3F85407240CC8C3336B
:1009AD00C4540F4420C8834004F456800146F6DF3A
:1009BD00E4800B0102040810204080900B59E47E66
:1009CD00019360BCA3FF543F30E509541FFEE4932F
:1009DD00A360010ECF54C025E060A840B8E493A3F6
:1009ED00FAE493A3F8E493A3C8C582C8CAC583CA21
:1009FD00F0A3C8C582C8CAC583CADFE9DEE780BED9
:010B71000083
:00000001FF
